:1000000004308A00132C00000A108A100A1182079B
:100010003134323433344134343435343634423488
:1000200037343834393443342A3430342334443484
:100030000C00CD34F2323A1000010C00D4326D388D
:100040006539613A7539611DA012661000008A1188
:100050000A12552C3D3084008313000803193E28F2
:100060000130F800F701F70B3328F80B32284A303B
:10007000F700F70B39283C28800B30280800440E85
:10008000F039F7000F3008057704880000000814E5
:100090004928081008000808F700080E0F39F80072
:1000A00008008316081088100811831288100F307A
:1000B00083160805F038880083120815000008141C
:1000C00000004B207808C40008100000081400004D
:1000D0004B207808C30008100F30831608058800ED
:1000E0008312440EF700F030F70577084304F80058
:1000F0007808C300C31B5728411C88104118881476
:100100000000081100000810420EC3000F30C305A4
:100110004308C4003F2042080F39C300C4003F20F9
:1001200008002830B0000C30B1000130B2000630B9
:10013000B3000810881008110F30831608058800D6
:100140000810881008110F308312BD002A200130DA
:10015000AF002F08033C031CB5280330C4003F2028
:100160000530BD002A20AF0AA9280230C4003F2074
:100170000530BD002A20AF012F08033C031CCC280A
:1001800030302F07840083130008B400C101340805
:10019000C2005120AF0ABC288A110A125B2C3E0B08
:1001A000D228D5284030BF00D628BF0101303D02FB
:1001B000BF073F088038C000C1014008C20051207D
:1001C00008003C08073A0319EF280B3A0319F428F2
:1001D000063A0319FC28023A0319022907290130BB
:1001E000BD00BE00CF200C29C1010130C20051204A
:1001F0000230BD002A200C290130BD000230BE00B3
:10020000CF200C29C1011030C20051200C2901302F
:10021000C1003C08C200512008000B08AF008B133E
:10022000831603178C170C140000000083120313AD
:10023000AF1B8B1703170C087F39031961290313B0
:10024000AF0003170D080313B00003170F080313C3
:10025000B1002F08BC00E120300803178D00031304
:10026000310803178F0003130B08B2008B1383169A
:1002700003178C170C140000000083120313B21B29
:100280008B1703170C0D0E0D7F390319612903130A
:10029000AF0003170D080313B00003170F08031373
:1002A000B1002F08BC00E120300803178D000313B4
:1002B000310803178F008D0A03198F0A03130D29C4
:1002C000031703130800B201A00A2008213C0318F9
:1002D000C3292308FC3E03188629043ECA29EF30AF
:1002E00083168600831286008629DF3083168600F7
:1002F000831286008629BF3083168600831286000B
:1003000086297F308316860083128600211C92295D
:1003100006080F390F3C031D912921102208B20055
:10032000A201C22906080F390F3C0319BD2906088E
:100330000139031D9D29B301B12906080239031DA6
:10034000A4290130B300B12906080439031DAB29E3
:100350000230B300B12906080839031DB129033062
:10036000B300330DF700F70DFC30F70577082307CE
:100370000420F800A2002114C229A30A2308043C87
:100380000319A301A001FF308316860083123208EF
:10039000F80008000A148A100A1182076F297529CB
:1003A0007B298129AF01B101B00163217808AF0039
:1003B000AF08031DF029B00A0319B10A31084E3CF9
:1003C000031CF029031DE82930081F3C031CF029F9
:1003D0000330F700F70BEA2963217808AF00D8292A
:1003E0002F08F8008A110A128B2C8E30F700300883
:1003F000F8002F08F900FA01F808031D092A790806
:10040000F800F9010830F702F808031D092AF7017E
:10041000112A0310F81B102AF90DF80DF703092A09
:10042000F8138A110A12AF2C3C080319842AC4005D
:1004300040080319842AC4070318252A7F30C40200
:10044000031C842A0319842A292A8130C40703182B
:10045000842A4408F700F801F901FA013D08C800B0
:10046000C8173E08C7003F08C6001830C400C501C1
:10047000461C522A4308FA07031C442AF90A031DA2
:10048000442AF80A0319C5174208F907031C4B2A26
:10049000F80A0319C5174108BE00BE173E08F80741
:1004A0000318C517C50DF80CF90CFA0CC80CC70CCD
:1004B000C60C0310C40B372A0130F7070318842A2F
:1004C000F81B692AC80DFA0DF90DF80DF703031989
:1004D000842AC81F7A2AFA0A031D7A2AF90A031DF8
:1004E0007A2AF80A031D7A2AF80CF90CFA0CF70A92
:1004F0000319842A3D08C5004108C506C51F822A84
:10050000F817882AF813882AF701F801F901FA0187
:1005100008000B08B0008B13831603178C170C14FC
:100520000000000083120313B01B8B170318C02AAE
:1005300003170C087F390313B00003170D080313CA
:10054000B10003170F080313B2003008BC00E1200C
:10055000310803178D000313320803178F000313AC
:100560000B08B3008B13831603178C170C140000B1
:10057000000083120313B31B8B17AF0BC02ADF2AB3
:1005800003170C0D0E0D7F390313B00003170D0870
:100590000313B10003170F080313B2003008BC00A7
:1005A000E120310803178D000313320803178F0071
:1005B0008D0A03198F0A03100313AF0B892A8A11BE
:1005C0000A12D62C8318E72A443084008313F701DB
:1005D000F801F901FA01C401C501C601C7014308C8
:1005E0004204410440040319252B2030C8000310A5
:1005F000BC0DBD0DBE0DBF0DC40DC50DC60DC70D87
:1006000043084702031D0E2B42084602031D0E2B12
:1006100041084502031D0E2B40084402031C1F2BFA
:100620004008C4024108031C410FC5024208031CD4
:10063000420FC6024308031C430FC7020314F70D01
:10064000F80DF90DFA0DC80BF72A44088000840A4A
:1006500045088000840A46088000840A4708800014
:1006600008000408B4003308B6000319502B320800
:10067000BF003108BE003008BD002F08BC00C30118
:10068000C2012030C1008230C00014227A08B200BA
:100690007908B1007808B0007708AF00B60B372BA7
:1006A0003208BF003108BE003008BD002F08BC0072
:1006B0003C08B63CBC00FA013D08C000BD17031061
:1006C000BD0CBE0CBF0CFA0CF90CF80CF70CBC0BF3
:1006D0005F2BC01F762BF709F809F909FA09F70A09
:1006E0000319F80A0319F90A0319FA0A7A08B20079
:1006F0007908B1007808B0007708AF00B21F8D2BE1
:10070000B403B416AF09B009B109B209AF0A0319AD
:10071000B00A0319B10A0319B20A3B30BB009A3080
:10072000BA00CA30B900B8010A30B600330803195C
:10073000B40A83142F30840083133208BF003108B9
:10074000BE003008BD002F08BC003B08C3003A08BB
:10075000C2003908C1003808C000E2227808F70852
:10076000031DC52B330A36020319C52B34080319A0
:10077000C72B0F3936020319BF2B0318F72BB41BF5
:10078000F72B341BC72B2030F32B2030B405B41EBD
:10079000D52BB4123308031DB4037708B4002D30F1
:1007A000BC00E1203408F700B40133083602031D11
:1007B000E32B7708B4002E30BC00E1203408F700AA
:1007C0002030B40500303030B41EF32BB41233089F
:1007D000031DB4037708B4002D30BC00E1203408B9
:1007E000F700B4013030F7077708BC00E120831030
:1007F0003B08BF003A08BE003908BD003808BC00FD
:10080000C301C201C1010A30C000E2227A08BB0064
:100810007908BA007808B9007708B800B60B992BA8
:100820008A110A12E32C03081F3983008316031769
:100830008711193003139900A63098009030831265
:100840009800FF30AB00AD01AC0183160317090817
:10085000C039890003131F129F120030031788004C
:10086000831287018801890183130313A0012110DA
:10087000A201A301FF30831695008113013085008A
:100880000030860003170908C039890003131F12BE
:100890009F12013003178800831203131F179F173D
:1008A00083169F1783121F14272800308316870092
:1008B0008312AB009128183003178D0000308F0091
:1008C00003130D210930AA000130BD000230BE0023
:1008D000CF20193003178D0000308F0003130D2136
:1008E0000130BD000230BE00CF202A08103C031C9E
:1008F000E72CAE0803198A2C2A08BD000230BE007E
:10090000CF202E08BC00E1202E080C1E852C99005B
:10091000AE01AA0AD2297808AE002A08103C0318B2
:10092000982C1D3003178D0000308F0003130D210C
:100930000030F8001F08C33978049F000130BD0063
:100940002A209F149F18A22C83161E088312A4002D
:100950001E08A5002508B0002408AF00F5297A0874
:10096000BF007908BE007808BD007708BC005A3087
:10097000C300F530C2007930C1007D30C0001422C0
:100980007A08A9007908A8007808A7007708A600C7
:100990000130BD00BE00CF201E3003178D00003097
:1009A0008F0003100D300313AF00892A89308400B3
:1009B0002908B2002808B1002708B0002608AF00B7
:1009C0000230B300312B2030BC00E120752C622CAA
:0209D0006300C2
:04400E00E12CFF3F63
:00000001FF
;PIC16F887
;CRC=7DF8  CREATED="03-Oct-21 17:43"
