:1000000000308A006D2800000A108A100A11820749
:100010003F3406345B344F3466346D347D340734FA
:100020007F3467342708F801260203181A282608A7
:10003000F7002628F7010830A800A60DF70D2708BD
:1000400077020318F700F80DA80B1D2808002630CA
:1000500084008313000803193B280130F800F701DE
:10006000F70B3028F80B2F284A30F700F70B36280B
:100070003928800B2D280800A201C830A100A10852
:10008000031D4528A20803196A282008A6000A3083
:10009000A70012207808A5002008A6000A30A700B3
:1000A00012207708A40024080420F8008600071412
:1000B0000130A6002720071025080420F80086003C
:1000C00087140130A6002720871021080319A203F6
:1000D000A1033F288A110A128C2803081F398300C4
:1000E000FF30A300831603170908C03989000313E2
:1000F0001F129F12003003178800831287018801A6
:10010000890183130030831603138600870083124E
:10011000A300A001A0013C28A00A8B288A28630024
:04400E00E12CFF3F63
:00000001FF
;PIC16F887
;CRC=E2D0  CREATED="16-Sep-21 23:13"
