:1000000000308A00F12800000A108A100A118207C5
:1000100028340C34013406340A108A100A1182077D
:1000200043346F346E34743472346F346C3420342F
:100030004134753474346F346D34613474346934DC
:1000400063346F342034453464347534633461343C
:10005000633469346F346E3400340A108A100A1124
:1000600082070C3400342530840083130008031900
:1000700047280130F800F701F70B3C28F80B3B2824
:100080004A30F700F70B42284528800B3928003406
:100090002C0EF039F7000F300805770488000000B7
:1000A00008145228081000348810F0308316880095
:1000B000831208150000081400000808080E0F3904
:1000C000AC0008100000081400000808080E0F39E2
:1000D000AB00081000308316880083122C0EF70046
:1000E000F030F70577082B04F8007808AB00AB1B5D
:1000F0005528291C881029188814000008110000B0
:1001000008102A0EAB000F30AB052B08AC004820BE
:100110002A080F39AB00AC004820003400308316A9
:10012000880083128810081108100F30A5003320B2
:100130000130A3002308033C031CA6280330AC00B5
:1001400048200530A5003320A30A9A280230AC00CD
:100150004820A3012308033C031CB72823080420DC
:10016000A400A9012408AA005420A30AAA288A11DD
:100170000A120F29260BBD28C0284030A700C1282D
:10018000A70101302502A70727088038A800A90188
:100190002808AA005420003424080C3A0319D72850
:1001A000063A0319DF28023A0319E528EA28A901CB
:1001B0000130AA0054200230A5003320F02801307D
:1001C000A5000230A600BA20F028A9011030AA002C
:1001D0005420F0280130A9002408AA005420F02857
:1001E0000034840183131F30830583160317090825
:1001F000C039890003131F129F12003003178800B3
:10020000F91279160430FB00FA0003130708FD39D0
:10021000870001308312A1001030A2008E2822082E
:10022000A5002108A600BA20A30123080C2000384D
:1002300003191E29A30AA400CC2015296430A500A7
:100240003320A2032208803A633C031C302910307B
:10025000A200A10A2108023C031830290130A100A4
:10026000A30123082D20003803193A29A30AA4006A
:08027000CC2031290F296300A5
:04400E00F12FFF3F50
:00000001FF
;PIC16F887
