:1000000000308A005C280000FF00030E8301A1007D
:100010000A08A0008A010408A2007708A300780853
:10002000A4007908A5007A08A600831383120B1E8A
:100030001B288B182C28220884002308F70024088A
:10004000F8002508F9002608FA0020088A00210E89
:100050008300FF0E7F0E09008A110A123D280A1044
:100060008A100A1182073F3406345B344F346634F9
:100070006D347D3407347F346734C830A9002930AB
:10008000840083130008031953280130F800F70196
:10009000F70B4828F80B47284A30F700F70B4E2893
:1000A0005128800B4528A70A27080A3C0319A701F5
:1000B0008B108A110A121B2803081F398300A7011D
:1000C000FF30A800831603170908C03989000313FD
:1000D0001F129F12003003178800831287018801C6
:1000E00089018313FF3083160313860000308700D5
:1000F0008312A800C0308B040B1627082F20F800AD
:0601000087007D2863006A
:04400E00E12FFF3F60
:00000001FF
;PIC16F887
;CRC=A98B  CREATED="18-Sep-21 20:30"
