:1000000000308A0019280000213084008313000882
:10001000031918280130F800F701F70B0D28F80B29
:100020000C284A30F700F70B13281628800B0A28F3
:10003000080003081F398300831603170908C03915
:10004000890003131F129F120030031788008312C8
:10005000870188018901831300308316031386000A
:100060008312860180308600FA30A1000420061831
:100070003F280310860CFA30A10004203728861B85
:1000800047280310860DFA30A10004203F28813054
:100090008600FA30A10004208601FA30A100042075
:1000A00042308600FA30A10004208601FA30A10017
:1000B000042024308600FA30A10004208601FA30A2
:1000C000A100042018308600FA30A1000420860127
:0A00D000FA30A1000420322863007A
:04400E00E12CFF3F63
:00000001FF
;PIC16F887
;CRC=852B  CREATED="20-Sep-21 17:07"
