:1000000001308A0061290000FF00030E8301A10076
:100010007F08A0000A08A7008A01A00E0408A20019
:100020007708A3007808A4007908A5007A08A6003C
:10003000831383128B1D1E280B1835288C308400E7
:10004000001C24280C183728220884002308F700F5
:100050002408F8002508F9002608FA0027088A0075
:10006000210E8300FF0E7F0E09008A112B298A11B1
:1000700059290A108A100A11820731343234333474
:100080003434353436343734383439342A3430342F
:1000900023348316061600308312061A0130AE0090
:1000A0008316061700308312061B0130AE05831637
:1000B000861700308312861B01302E050319642831
:1000C0000030F800672867280130F800672808002A
:1000D0008316061606178617061083120610831657
:1000E000861083128610831686118312861183165A
:1000F0000510831205108316811383128B150800D7
:10010000AE010A30AB00AA012A08043C031CED280A
:100110002A08FC3E0318D228043E23298316061021
:100120008312061083168610831286148316861196
:10013000831286158316051083120514D2288316A0
:1001400006108312061483168610831286108316F7
:100150008611831286158316051083120514D22882
:1001600083160610831206148316861083128614D3
:1001700083168611831286118316051083120514C7
:10018000D228831606108312061483168610831253
:100190008614831686118312861583160510831222
:1001A0000510D228831606168312061ADA28AB0128
:1001B000ED28EB28831606178312061BE32801306F
:1001C000AB00ED28EB28831686178312861BEB28DD
:1001D0000230AB00ED28AA0A842868202B080A3CCC
:1001E00003191F292A08AF000330B000F701F801F6
:1001F0002F0803103018F707F70CF80CB018F707A2
:10020000F70CF80C3019F707F70CF80CB019F707D2
:10021000F70CF80C301AF707F70CF80CB01AF707C0
:10022000F70CF80C301BF707F70CF80CB01BF707AE
:10023000F70CF80C2B0878073920F800AE002E08D0
:10024000F8008A1131290A148A100A1182078E28AF
:100250009F28B028C1280B104920F80803195629F7
:1002600080287808AD002D080C1E342999000D3027
:100270000C1E382999004920F808031955290A301D
:10028000AE002E3084008313000803195429023075
:10029000F800F701F70B4A29F80B49299730F700C6
:1002A000F70B5029800B47293B290B100B108A11A3
:1002B0002428831685100230831285060C108A11BB
:1002C0002428840183131F308305723083168F0026
:1002D0000F088312A9010C3083169900A2309800F0
:1002E00090308312980083161F129F121B088039CA
:1002F0009B0007309C008312AA01AB01B53090002F
:1003000068208B150608AC0083160C14C0308312CD
:0E0310008B04723083168F000F088D29630056
:04400E00301FFF3F21
:00000001FF
;PIC16F88
;CRC=49C4  CREATED="20-nov-18 11:53"
