:1000000000308A0019280000223084008313000881
:10001000031918280130F800F701F70B0D28F80B29
:100020000C284A30F700F70B13281628800B0A28F3
:100030000034840183131F308305831603170908D6
:10004000C039890003131F129F1200300317880064
:100050008312870188018901FE308316031386000D
:10006000831206140230A100FA30A2000420A10B72
:10007000342806100230A100FA30A2000420A10B9F
:060080003C28312863005A
:04400E00E12CFF3F63
:00000001FF
;PIC16F887
