:1000000004308A00392C0000FF00030E8301A10098
:100010000A08A0008A010408A2007708A300780853
:10002000A4007908A5007A08A60003170D08031399
:10003000A70003170F080313A80003170C080313E6
:10004000A90003170E080313AA00831383120B1EC3
:100050002B288B184C28220884002308F70024083A
:10006000F8002508F9002608FA00270803178D0074
:100070000313280803178F000313290803178C00A4
:1000800003132A0803178E00031320088A00210E89
:100090008300FF0E7F0E09008A110A124F28AB0A57
:1000A0000319AC0A8B108A110A122B28D622CC27EE
:1000B000C324C4204410CD27D427520052284D1DFC
:1000C000A012661020004630840083130008031934
:1000D00077280130F800F701F70B6C28F80B6B2834
:1000E0004A30F700F70B72287528800B6928080042
:1000F0004D0EF039F7000F30080577048800000036
:1001000008148228081008000808F700080E0F39A4
:10011000F800080083160810881008118312881050
:100120000F3083160805F038880083120815000088
:100130000814000084207808CD000810000008147E
:10014000000084207808CC0008100F3083160805C2
:10015000880083124D0EF700F030F70577084C0445
:10016000F8007808CC00CC1B90284A1C88104A184C
:10017000881400000811000008104B0ECC000F304E
:10018000CC054C08CD0078204B080F39CC00CD00B1
:10019000782008002830B9000C30BA000130BB00CC
:1001A0000630BC000810881008110F3083160805AF
:1001B00088000810881008110F308312C6006320D1
:1001C0000130B8003808033C031CEE280330CD0092
:1001D00078200530C6006320B80AE2280230CD003E
:1001E00078200530C6006320B8013808033C031CA2
:1001F000052939303807840083130008BD00CA017F
:100200003D08CB008A20B80AF5288A110A12A02CD2
:10021000470B0B290E294030C8000F29C8010130B7
:100220004602C80748088038C900CA014908CB00FF
:100230008A2008004508073A031928290B3A0319B0
:100240002D29063A03193529023A03193B29402979
:100250000130C600C70008214529CA010130CB0082
:100260008A200230C600632045290130C6000230D2
:10027000C70008214529CA011030CB008A20452932
:100280000130CA004508CB008A2008000B08B800DE
:100290008B13831603178C170C14000000008312B5
:1002A0000313B81B8B1703170C087F3903199A29FE
:1002B0000313B80003170D080313B90003170F0841
:1002C0000313BA003808C5001A21390803178D0036
:1002D00003133A0803178F0003130B08BB008B139B
:1002E000831603178C170C140000000083120313ED
:1002F000BB1B8B1703170C0D0E0D7F3903199A29A1
:100300000313B80003170D080313B90003170F08F0
:100310000313BA003808C5001A21390803178D00E5
:1003200003133A0803178F008D0A03198F0A03136A
:100330004629031703138A110A12AB2C1030BC0094
:10034000F701FA01B90CB80C031CAC293A08F707FD
:100350000318FA0A3B08FA07FA0CF70CF90CF80C28
:10036000BC0BA2298A110A12E02CF801F901F7014D
:10037000FA013D08031DBF293C080319D929103093
:10038000BE000310BA0DBB0DF70DFA0D3D087A0241
:10039000031DCC293C087702031CD5293C08F70231
:1003A000031CFA033D08FA020314F80DF90DBE0B05
:1003B000C1298A110A12EC2C8E30F7003908F80096
:1003C0003808F900FA01F808031DF0297908F80047
:1003D000F9010830F702F808031DF029F701F829A0
:1003E0000310F81BF729F90DF80DF703F029F8139E
:1003F0008A110A12F32C0B08B9008B13831603170A
:100400008C170C140000000083120313B91B8B1708
:100410000318322A03170C087F390313B900031796
:100420000D080313BA0003170F080313BB003908A4
:10043000C5001A213A0803178D0003133B08031760
:100440008F0003130B08BC008B13831603178C1744
:100450000C140000000083120313BC1B8B17B80B95
:10046000322A512A03170C0D0E0D7F390313B900E0
:1004700003170D080313BA0003170F080313BB007B
:100480003908C5001A213A0803178D0003133B08E9
:1004900003178F008D0A03198F0A03100313B80B7B
:1004A000FB298A110A120C2D8318592A4D30840019
:1004B0008313F701F801F901FA01CD01CE01CF0153
:1004C000D0014C084B044A0449040319972A2030F0
:1004D000D1000310C50DC60DC70DC80DCD0DCE0D35
:1004E000CF0DD00D4C085002031D802A4B084F023F
:1004F000031D802A4A084E02031D802A49084D0226
:10050000031C912A4908CD024A08031C4A0FCE0257
:100510004B08031C4B0FCF024C08031C4C0FD0029E
:100520000314F70DF80DF90DFA0DD10B692A4D08DA
:100530008000840A4E088000840A4F088000840AE4
:100540005008800008000408BD003C08BF000319E3
:10055000352B3B08C8003A08C7003908C6003808E0
:10056000C500CC01CB012030CA008230C90045084B
:100570000319272BCD0049080319272BCD07031892
:10058000C82A7F30CD02031C272B0319272BCC2A26
:100590008130CD070318272B4D08F700F801F9012A
:1005A000FA014608D100D1174708D0004808CF000B
:1005B0001830CD00CE014F1CF52A4C08FA07031C59
:1005C000E72AF90A031DE72AF80A0319CE174B0890
:1005D000F907031CEE2AF80A0319CE174A08C700C8
:1005E000C7174708F8070318CE17CE0DF80CF90CFB
:1005F000FA0CD10CD00CCF0C0310CD0BDA2A013041
:10060000F7070318272BF81B0C2BD10DFA0DF90D4A
:10061000F80DF7030319272BD11F1D2BFA0A031D11
:100620001D2BF90A031D1D2BF80A031D1D2BF80CA9
:10063000F90CFA0CF70A0319272B4608CE004A08D2
:10064000CE06CE1F252BF8172B2BF8132B2BF701DB
:10065000F801F901FA017A08BB007908BA007808B4
:10066000B9007708B800BF0BA92A3B08C8003A08B0
:10067000C7003908C6003808C5004508B63CC500A3
:10068000FA014608C900C6170310C60CC70CC80CEF
:10069000FA0CF90CF80CF70CC50B442BC91F5B2B9B
:1006A000F709F809F909FA09F70A0319F80A031909
:1006B000F90A0319FA0A7A08BB007908BA0078081F
:1006C000B9007708B800BB1F722BBD03BD16B8096F
:1006D000B909BA09BB09B80A0319B90A0319BA0A50
:1006E0000319BB0A3B30C4009A30C300CA30C200B1
:1006F000C1010A30BF003C080319BD0A8314383019
:10070000840083133B08C8003A08C7003908C600B4
:100710003808C5004408CC004308CB004208CA0092
:100720004108C90054227808F708031DAA2B3C0A87
:100730003F020319AA2B3D080319AC2B0F393F02C6
:100740000319A42B0318DC2BBD1BDC2B3D1BAC2B8E
:100750002030D82B2030BD05BD1EBA2BBD123C0861
:10076000031DBD037708BD002D30C5001A213D08CB
:10077000F700BD013C083F02031DC82B7708BD00F0
:100780002E30C5001A213D08F7002030BD0500308D
:100790003030BD1ED82BBD123C08031DBD037708A9
:1007A000BD002D30C5001A213D08F700BD013030D5
:1007B000F7077708C5001A2183104408C8004308CA
:1007C000C7004208C6004108C500CC01CB01CA01E0
:1007D0000A30C90054227A08C4007908C300780896
:1007E000C2007708C100BF0B7E2B8A110A12192D97
:1007F0003908C0003D08C006C01F032C03110310B8
:10080000B91B0314362C3908C0003C08C100380855
:10081000C1020319112CC01F362C0308013A8300B2
:10082000362C3D08C1003908C10203191D2CC01F18
:10083000362C0308013A8300362C3E08C1003A08E2
:10084000C1020319292CC01F362C0308013A83006A
:10085000362C3F08C1003B08C1020319352CC01FCC
:10086000362C0308013A8300362C03108A110A1231
:100870002E2D03081F3983008316031787111930A3
:1008800003139900A6309800903083129800AC01B1
:10089000AB01AE01AD01FF30B500B701B601831663
:1008A00003170908C039890003131F129F12003073
:1008B000031788008312870188018901831301309F
:1008C000831603138500860000308800031709088B
:1008D000C039890003131F129F12013003178800CB
:1008E000831203131F179F1783169F1783121F145A
:1008F000F930AF000130B0003002F800780DF70099
:10090000F70DF70DF830F7057708053892002F0836
:1009100083169200831235113508831687008312DF
:1009200007110C30970083169B019C0101309D003C
:1009300083120B1683160117C03083128B04CA284A
:100940000130C600C7000821563003178D00003063
:100950008F00031346290030F8001F08C3397804BC
:100960009F002130F700F70BB32C9F149F18B62C73
:1009700083161E088312AD001E08AE002E08F90073
:100980002D08F800F90CF80CF90CF80CF90C7808A3
:100990009500F90C790C3039F7001708CF39770436
:1009A00097001130B8003930C6006320B80BD32C43
:1009B0002C08B9002B08B800BB013C30BA009E29B6
:1009C0007908B9007808B8007908BB007808BA003F
:1009D000BD011830BC00B5297908FA007808B800C4
:1009E0007908B900DC297A08B4007908B3007808DE
:1009F000B2007708B100AC01AB010130C600023093
:100A0000C70008215E3003178D0000308F000310EF
:100A100005300313B800FB29893084003408BB007B
:100A20003308BA003208B9003108B8000230BC00FF
:100A3000A32A2030C5001A212030C5001A21BB018D
:100A4000BA013530B9008630B8003408BF00330829
:100A5000BE003208BD003108BC00F82B0318322D4F
:100A6000031D362D4D300C1E332D9900AB2C630029
:04400E00E12CFF3F63
:00000001FF
;PIC16F887
;CRC=94D2  CREATED="18-Sep-21 23:14"
