:1000000000308A00D92800000A108A100A118207DD
:100010003F3406345B344F3466346D347D340734FA
:100020007F346734A53A20108A06800BA53A201049
:100030008A060001A53A20108A0600002508F8016A
:100040002402031826282408F7003228F701083074
:10005000A600A40DF70D250877020318F700F80D88
:10006000A60B2928080078082208A4006430A500FF
:100070001E207708A20078083030031D4628A31CF4
:100080004E28A3194E28231A20304928A3112312E1
:100090002314F80778080C1E4B2899002208A400A6
:1000A0000A30A5001E207708A20078083030031D12
:1000B0005F28A3196428231C6428231A2030F8071A
:1000C00078080C1E612899003030A20722080C1E07
:1000D0006728990008000B08A3008B1383160317E9
:1000E0008C170C140000000083120313A31B8B1742
:1000F0000318A32803170C087F390313A300031761
:100100000D080313A40003170F080313A500230809
:100110000C1E88289900240803178D000313250856
:1001200003178F0003130B08A6008B138316031706
:100130008C170C140000000083120313A61B8B17EE
:10014000A20BA328C32803170C0D0E0D7F39031330
:10015000A30003170D080313A40003170F080313CC
:10016000A50023080C1EB2289900240803178D004F
:100170000313250803178F008D0A03198F0A031034
:100180000313A20B6B28080023308400831300089C
:100190000319D8280130F800F701F70BCD28F80B28
:1001A000CC284A30F700F70BD328D628800BCA2872
:1001B000080003081F3983008316031787111930BD
:1001C00003139900A6309800903083129800FF30F6
:1001D000A100831603170908C039890003131F12F1
:1001E0009F1200300317880083128701880189015C
:1001F00083130030831603138600033087008312B5
:10020000A100A00120080420F80086008712200821
:10021000A2001B30A3003320133003178D000030E1
:100220008F00031004300313A2006B20071C392930
:100230000230A2009630A300C420A20B1A2907188E
:100240001F29A00A20080420F80086002008A20028
:100250001B30A3003320173003178D0000308F00B0
:10026000031004300313A2006B2020080A3C03197A
:10027000A001871C63290230A2009630A300C4208D
:10028000A20B3D298716A00803196229A0032008A4
:100290000420F80086002008A2001B30A3003320B1
:1002A0001B3003178D0000308F0003100430031340
:1002B000A2006B200230A2009630A300C420A20B43
:0A02C0005C2943298712022963001C
:04400E00E12CFF3F63
:00000001FF
;PIC16F887
;CRC=A61A  CREATED="16-Sep-21 19:59"
