:1000000000308A00A12800000A108A100A11820715
:10001000313432343334343435343634373438349C
:1000200039342A34303423348A110A12C128A60103
:10003000A00A2008213C0318982823080319272820
:10004000013A03192D28033A031933283828DE30E2
:1000500083168600831286003828BE3083168600F9
:100060008312860038287E3083168600831286002D
:10007000211C442806081E391E3C031D432821105C
:100080002208A600A201972806081E391E3C031963
:10009000922806080239031D4F28A7016328060885
:1000A0000439031D56280130A700632806080839C3
:1000B000031D5D280230A700632806081039031DC0
:1000C00063280330A7002708A8000330A900F70120
:1000D000F801280803102918F707F70CF80CA918DD
:1000E000F707F70CF80C2919F707F70CF80CA91902
:1000F000F707F70CF80C291AF707F70CF80CA91AF0
:10010000F707F70CF80C291BF707F70CF80CA91BDD
:10011000F707F70CF80C230878070420F800A20072
:1001200021149728A30A2308033C0319A301A00163
:10013000FE308316860083122608F8008A110A1200
:10014000CA2803081F398300FF30A5008316031750
:100150000908C039890003131F129F1200300317CA
:100160008800831287018801890183130313A0018A
:100170002110A201A30183168101FF309500831293
:1001800014280030831687008312A5003F308700B3
:10019000A40117287808A40030302402F63E031882
:1001A000F0280A3EF2283F308700F028063087000A
:1001B000F0285B308700F0284F308700F028663049
:1001C0008700F0286D308700F0287D308700F02808
:1001D00007308700F0287F308700F02867308700DD
:1001E000C82863000A108A100A118207D328D6286B
:1001F000D928DC28DF28E228E528E828EB28EE28A3
:04400E00E12CFF3F63
:00000001FF
;PIC16F887
;CRC=9D9B  CREATED="19-Sep-21 16:26"
