:1000000000308A00292800000A108A100A1182078D
:100010003F3406345B344F3466346D347D340734FA
:100020007F346734223084008313000803192628A4
:100030000130F800F701F70B1B28F80B1A284A309B
:10004000F700F70B21282428800B18288A110A12A0
:100050005028840183131F30830583160317090872
:10006000C039890003131F129F1200300317880044
:1000700083128701880189010030831603138600EB
:100080008312A0012008093C031C582820080420E2
:10009000F8008600A00A0230A100FA30A20012285F
:1000A000A10B4D2820080A3C031D5728A001422817
:0200B0006300EB
:04400E00E12CFF3F63
:00000001FF
;PIC16F887
