:1000000001308A00DA2900000A108A100A118207DA
:10001000313432343334343435343634373438349C
:1000200039342A34303423340C000C002D30840051
:100030008313000803192A280130F800F701F70B91
:100040001F28F80B1E284A30F700F70B2528282810
:10005000800B1C280800330EF039F7000F3006051E
:1000600077048600000006143528061008000608EC
:10007000F700060E0F39F8000800831606108610E8
:100080000611831286100F3083160605F03886009D
:100090008312061500000614000037207808B3000C
:1000A000061000000614000037207808B200061081
:1000B0000F308316060586008312330EF700F030EA
:1000C000F70577083204F8007808B200B21B43281D
:1000D000301C86103018861400000611000006102F
:1000E000310EB2000F30B2053208B3002B203108B8
:1000F0000F39B200B3002B2008002830A9000C30C3
:10010000AA000130AB000630AC00061086100611C4
:100110000F308316060586000610861006110F3074
:100120008312AD0016200130A8002808033C031CF0
:10013000A1280330B3002B200530AD001620A80AFB
:1001400095280230B3002B200530AD001620A80101
:100150002808033C031CB82829302807840083138F
:100160000008AD00B0012D08B1003D20A80AA82864
:100170008A110A12F5298A110A12F6292D0BC128B3
:10018000C4284030AE00C528AE0101302C02AE07B5
:100190002E088038AF00B0012F08B1003D200800C4
:1001A0002B08073A0319DE280B3A0319E328063A0D
:1001B0000319EB28023A0319F128F6280130AC00A4
:1001C000AD00BE20FB28B0010130B1003D2002305F
:1001D000AD001620FB280130AC000230AD00BE207F
:1001E000FB28B0011030B1003D20FB280130B000E9
:1001F0002B08B1003D2008000B08A8008B138316C4
:1002000003178C170C140000000083120313A81BA3
:100210008B1703170C087F39031950290313A80003
:1002200003170D080313A90003170F080313AA00EF
:100230002808AB00D020290803178D0003132A08D3
:1002400003178F0003130B08AB008B1383160317E0
:100250008C170C140000000083120313AB1B8B17C8
:1002600003170C0D0E0D7F39031950290313A80035
:1002700003170D080313A90003170F080313AA009F
:100280002808AB00D020290803178D0003132A0883
:1002900003178F008D0A03198F0A0313FC28031715
:1002A00003130800A801A00A2008213C0318D32941
:1002B000230803196229013A03196829033A03192B
:1002C0006E297329DE308316860083128600732917
:1002D000BE30831686008312860073297E30831613
:1002E000860083128600211C7F2906081E391E3CC9
:1002F000031D7E2921102208A800A201D229060888
:100300001E391E3C0319CD2906080239031D8A290E
:10031000A9019E2906080439031D91290130A9006D
:100320009E2906080839031D98290230A9009E2934
:1003300006081039031D9E290330A9002908AA00C8
:100340000330AB00F701F8012A0803102B18F70758
:10035000F70CF80CAB18F707F70CF80C2B19F7078C
:10036000F70CF80CAB19F707F70CF80C2B1AF7077A
:10037000F70CF80CAB1AF707F70CF80C2B1BF70768
:10038000F70CF80CAB1BF707F70CF80C23087807F1
:100390000420F800A2002114D229A30A2308033C58
:1003A0000319A301A001FE308316860083122808DA
:1003B000F800080003081F398300A701A60183166F
:1003C00003170908C039890003131F129F12003058
:1003D000031788008312870188018901831303139F
:1003E000A0012110A201A3017D28BB28FF308316A4
:1003F000950081131430831203178D0000308F0095
:100400000313FC20A501153003178D0000308F0069
:100410000313FC202508103C031C252A52217808D0
:10042000A400A408031D182A52217808A400112A48
:1004300024082A3C0319242A2408233C0319242ACB
:0E0440002408AB00D020A50A0A2A022A630075
:04400E00F12CFF3F53
:00000001FF
;PIC16F887
;CRC=97CD  CREATED="01-Apr-20 08:41"
