:1000000001308A00FF2900000A108A100A118207B5
:10001000313432343334343435343634373438349C
:1000200039342A34303423340C00C424C724D42275
:10003000A021CC20D6223A100001C424C724D42207
:1000400020224510CE2A452B4F1D20000C004326B0
:10005000412B4510C3275229C521D42000010C0093
:100060000C004326412B45104927C3275229C5219F
:10007000D42000010C003A308400831300080319D7
:100080004F280130F800F701F70B4428F80B4328FC
:100090004A30F700F70B4A284D28800B412808000A
:1000A000400EF039F7000F30060577048600000097
:1000B00006145A28061008000608F700060E0F3925
:1000C000F8000800831606108610061183128610A9
:1000D0000F3083160605F0388600831206150000DF
:1000E000061400005C207808C0000610000006140A
:1000F00000005C207808BF0006100F30831606054C
:1001000086008312400EF700F030F70577083F04B1
:10011000F8007808BF00BF1B68283D1C86103D18FA
:10012000861400000611000006103E0EBF000F30BE
:10013000BF053F08C00050203E080F39BF00C00077
:10014000502008002830B6000C30B7000130B8004D
:100150000630B9000610861006110F30831606050A
:1001600086000610861006110F308312BA003B205D
:100170000130B5003508033C031CC6280330C0001D
:1001800050200530BA003B20B50ABA280230C00022
:1001900050200530BA003B20B5013508033C031C54
:1001A000DD2836303507840083130008BA00BD010E
:1001B0003A08BE006220B50ACD288A110A12262A02
:1001C0008A110A12272A3A0BE628E9284030BB0098
:1001D000EA28BB0101303902BB073B088038BC006C
:1001E000BD013C08BE00622008003808073A031928
:1001F00003290B3A03190829063A03191029023A70
:10020000031916291B290130B900BA00E32020295F
:10021000BD010130BE0062200230BA003B2020291F
:100220000130B9000230BA00E3202029BD011030AE
:10023000BE00622020290130BD003808BE006220C7
:1002400008000B08B5008B13831603178C170C14CA
:100250000000000083120313B51B8B1703170C0853
:100260007F39031975290313B50003170D0803130C
:10027000B60003170F080313B7003508B800F520C0
:10028000360803178D000313370803178F00031375
:100290000B08B8008B13831603178C170C1400007F
:1002A000000083120313B81B8B1703170C0D0E0DE0
:1002B0007F39031975290313B50003170D080313BC
:1002C000B60003170F080313B7003508B800F52070
:1002D000360803178D000313370803178F008D0AA4
:1002E00003198F0A03132129031703130800B5010B
:1002F000A00A2008213C0318F8292308031987299C
:10030000013A03198D29033A031993299829DE30FC
:1003100083168600831286009829BE3083168600D5
:100320008312860098297E30831686008312860009
:10033000211CA42906081E391E3C031DA3292110D7
:100340002208B500A201F72906081E391E3C031930
:10035000F22906080239031DAF29B601C329060890
:100360000439031DB6290130B600C329060808392F
:10037000031DBD290230B600C32906081039031D2C
:10038000C3290330B6003608B7000330B800F701C0
:10039000F801370803103818F707F70CF80CB818ED
:1003A000F707F70CF80C3819F707F70CF80CB81921
:1003B000F707F70CF80C381AF707F70CF80CB81A0F
:1003C000F707F70CF80C381BF707F70CF80CB81BFD
:1003D000F707F70CF80C230878070420F800A200B0
:1003E0002114F729A30A2308033C0319A301A00140
:1003F000FE308316860083123508F80008000308D3
:100400001F398300FF30A400A601A501831603173E
:100410000908C039890003131F129F120030031707
:100420008800831287018801890183130313A001C7
:100430002110A201A301A7013130A9003030AA0088
:100440003230AB003830AC00AD01A228E028FF30DC
:10045000831695008113003087008312A400870162
:10046000143003178D0000308F0003132121AE01DB
:10047000AF010630B00030080A3C031C192BA70856
:10048000031D4D2A0130B900BA00E32015300317CF
:100490008D0000308F0003132121270B5A2A0130D1
:1004A000B900BA00E3201D3003178D0000308F0023
:1004B0000313212177217808A800A808031D642AC6
:1004C00077217808A8005D2A2D08033C03186C2AC0
:1004D0002808233C031D172BAD0AA8080319172B66
:1004E0003008B9000230BA00E3202A30B800F52005
:1004F000AF0A29302E078400831300082802031D49
:10050000832AAE0AA8012E08043C031DDE2A28080F
:10051000233C031DDE2A263003178D0000308F0098
:10052000031321210230B900BA00E320273003175A
:100530008D0000308F0003132121B10131080A3CE6
:10054000031CD02A0130B200B3013308073C031C5E
:10055000B72A0030A400831687018312320887006F
:100560002330BA003B200310B20DB30AA52A803015
:10057000B200B4013408073C031CCC2A0030A400AC
:10058000831687018312320887002330BA003B208C
:100590000310B20CB40ABA2A0130B200B10A9E2A82
:1005A0008701B001AD01AF01AE01A8012F300317E3
:1005B0008D0000308F0003132121A7012E08043C79
:1005C0000319172B2808233C031D172B3030031762
:1005D0008D0000308F00031321210130B90002305B
:1005E000BA00E320313003178D0000308F00031371
:1005F000212107150430B500FA30BA003B20B50BB5
:10060000FC2A07110430B500FA30BA003B20B50BC4
:10061000042B3A3003178D0000308F000313212183
:10062000AD01B001AF01AE01A8010130A700B00AD1
:060630003B2A372A63009B
:04400E00F12CFF3F53
:00000001FF
;PIC16F887
;CRC=FAD1  CREATED="20-Sep-21 21:19"
