:1000000001308A008D29000043347234693473341E
:100010007434693461346E34203441346E34643461
:100020007234653473342034433461346C34613455
:100030006D346234613473342034533461346E343B
:100040007434613400340C002930840083130008B8
:10005000031938280130F800F701F70B2D28F80BA9
:100060002C284A30F700F70B33283628800B2A2833
:1000700008002F0EF039F7000F30080577048800CC
:10008000000008144328081008000808F700080EAC
:100090000F39F80008008316081088100811831221
:1000A00088100F3083160805F03888008312081571
:1000B00000000814000045207808AF000810000078
:1000C0000814000045207808AE0008100F30831691
:1000D0000805880083122F0EF700F030F705770827
:1000E0002E04F8007808AE00AE1B51282C1C881096
:1000F0002C18881400000811000008102D0EAE0006
:100100000F30AE052E08AF0039202D080F39AE0094
:10011000AF00392008002830A5000C30A6000130BF
:10012000A7000630A8000810881008110F308316A9
:10013000080588000810881008110F308312A900E4
:1001400024200130A4002408033C031CAF28033002
:10015000AF0039200530A9002420A40AA3280230CA
:10016000AF0039200530A9002420A4012408033C55
:10017000031CC62825302407840083130008A90027
:10018000AC012908AD004B20A40AB6288A110A1236
:10019000A829290BCC28CF284030AA00D028AA01B2
:1001A00001302802AA072A088038AB00AC012B08CE
:1001B000AD004B2008002708073A0319E9280B3A3D
:1001C0000319EE28063A0319F628023A0319FC2807
:1001D00001290130A800A900C9200629AC0101307D
:1001E000AD004B200230A900242006290130A800D0
:1001F0000230A900C9200629AC011030AD004B2007
:1002000006290130AC002708AD004B2008000B0880
:10021000A4008B13831603178C170C140000000026
:1002200083120313A41B8B1703178C08031931299E
:100230000D080313A40003170F080313A5000317E9
:100240000C080313A700DB20240803178D000313F9
:10025000250803178F008D0A03198F0A0313072936
:10026000031703138A110A12B4290B08A4008B1375
:10027000831603178C170C1400000000831203135D
:10028000A41B8B1703170C087F3903198929031343
:10029000A40003170D080313A50003170F08031389
:1002A000A6002408A700DB20250803178D000313F0
:1002B000260803178F0003130B08A7008B13831660
:1002C00003178C170C140000000083120313A71BE4
:1002D0008B1703170C0D0E0D7F3903198929031392
:1002E000A40003170D080313A50003170F08031339
:1002F000A6002408A700DB20250803178D000313A0
:10030000260803178F008D0A03198F0A0313352956
:10031000031703138A110A12CD2903081F3983001A
:10032000A101A001831603170908C039890003132E
:100330001F129F1200300317880083128701880163
:100340008901831301300313A2001030A3008B280E
:100350002308A8002208A900C920043003178D0033
:1003600000308F00031307296430A9002420A30361
:100370002308803A613C031CC6291030A300A20A5E
:100380002208023C0318C6290130A20023300317BB
:0E0390008D0000308F0003133529A82963006B
:04400E00F12FFF3F50
:00000001FF
;PIC16F887
;CRC=1BF1  CREATED="19-Sep-21 21:21"
