:1000000001308A00482900000C00C3376E3AF237ED
:100010006C00C13AF437ED30F434E3370000273098
:10002000840083130008031923280130F800F70126
:10003000F70B1828F80B17284A30F700F70B1E2883
:100040002128800B152808002D0EF039F7000F30FD
:10005000080577048800000008142E2808100800FE
:100060000808F700080E0F39F8000800831608107A
:1000700088100811831288100F3083160805F03895
:10008000880083120815000008140000302078084A
:10009000AD00081000000814000030207808AC0003
:1000A00008100F3083160805880083122D0EF70004
:1000B000F030F70577082C04F8007808AC00AC1B8A
:1000C0003C282A1C88102A188814000008110000F7
:1000D00008102B0EAC000F30AC052C08AD0024200E
:1000E0002B080F39AC00AD00242008002830A300F5
:1000F0000C30A4000130A5000630A60008108810BE
:1001000008110F30831608058800081088100811A0
:100110000F308312A7000F200130A2002208033CF9
:10012000031C9A280330AD0024200530A7000F20BF
:10013000A20A8E280230AD0024200530A7000F202F
:10014000A2012208033C031CB128233022078400AB
:1001500083130008A700AA012708AB003620A20AD3
:10016000A1288A110A125F29270BB728BA28403024
:10017000A800BB28A80101302602A807280880385B
:10018000A900AA012908AB00362008002508073A73
:100190000319D4280B3A0319D928063A0319E12880
:1001A000023A0319E728EC280130A600A700B42082
:1001B000F128AA010130AB0036200230A7000F2041
:1001C000F1280130A6000230A700B420F128AA01CE
:1001D0001030AB003620F1280130AA002508AB0012
:1001E000362008000B08A2008B13831603178C1708
:1001F0000C140000000083120313A21B8B170317BB
:100200000C087F39031946290313A20003170D08B0
:100210000313A30003170F080313A4002208A5006B
:10022000C620230803178D000313240803178F002B
:1002300003130B08A5008B13831603178C170C14DC
:100240000000000083120313A51B8B1703170C0D6E
:100250000E0D7F39031946290313A20003170D0859
:100260000313A30003170F080313A4002208A5001B
:10027000C620230803178D000313240803178F00DB
:100280008D0A03198F0A0313F228031703130800BA
:1002900003081F398300A101A00183160317090871
:1002A000C039890003131F129F1200300317880002
:1002B0008312870188018901831303137628043090
:1002C00003178D0000308F000313F2200530A600C5
:1002D0000130A700B420053003178D0000308F00D7
:1002E0000313F2200330A6000230A700B420093027
:1002F00003178D0000308F000313F220662963007E
:04400E00E12CFF3F63
:00000001FF
;PIC16F887
;CRC=8A98  CREATED="01-Apr-20 08:44"
