:1000000002308A00442A00000A108A100A1182076E
:10001000313432343334343435343634373438349C
:1000200039342A34303423342021C9224E2B452739
:100030004922CF2920002022C923492A45104326DE
:10004000412B451000010C000C00A021CC20D62231
:10005000A0214F29D222432A411000010C00A021E7
:10006000CC20D622A0244E2B41264922411000004C
:10007000323084008313000803194C280130F80043
:10008000F701F70B4128F80B40284A30F700F70B2F
:1000900047284A28800B3E280800380EF039F70020
:1000A0000F30060577048600000006145728061056
:1000B00008000608F700060E0F39F800080083163E
:1000C000061086100611831286100F30831606055F
:1000D000F03886008312061500000614000059202F
:1000E0007808B800061000000614000059207808AF
:1000F000B70006100F308316060586008312380EEF
:10010000F700F030F70577083704F8007808B700F3
:10011000B71B6528351C861035188614000006119B
:1001200000000610360EB7000F30B7053708B800CC
:100130004D2036080F39B700B8004D200800283090
:10014000AE000C30AF000130B0000630B100061038
:10015000861006110F3083160605860006108610DD
:1001600006110F308312B20038200130AD002D0887
:10017000033C031CC3280330B8004D200530B200F7
:100180003820AD0AB7280230B8004D200530B20043
:100190003820AD012D08033C031CDA282E302D0732
:1001A000840083130008B200B5013208B6005F2056
:1001B000AD0ACA288A110A12612A8A110A12622A11
:1001C000320BE328E6284030B300E728B3010130C2
:1001D0003102B30733088038B400B5013408B600E3
:1001E0005F2008003008073A031900290B3A031969
:1001F0000529063A03190D29023A0319132918296A
:100200000130B100B200E0201D29B5010130B60077
:100210005F200230B20038201D290130B1000230C9
:10022000B200E0201D29B5011030B6005F201D2965
:100230000130B5003008B6005F2008000B08AD00A3
:100240008B13831603178C170C1400000000831205
:100250000313AD1B8B1703170C087F390319722981
:100260000313AD0003170D080313AE0003170F08A7
:100270000313AF002D08B000F2202E0803178D00E5
:1002800003132F0803178F0003130B08B0008B1301
:10029000831603178C170C1400000000831203133D
:1002A000B01B8B1703170C0D0E0D7F390319722924
:1002B0000313AD0003170D080313AE0003170F0857
:1002C0000313AF002D08B000F2202E0803178D0095
:1002D00003132F0803178F008D0A03198F0A0313C6
:1002E0001E29031703130800AD01A00A2008213CB2
:1002F0000318F529230803198429013A03198A29C7
:10030000033A031990299529DE308316860083125B
:1003100086009529BE3083168600831286009529B3
:100320007E308316860083128600211CA1290608D0
:100330001E391E3C031DA02921102208AD00A20178
:10034000F42906081E391E3C0319EF290608023954
:10035000031DAC29AE01C02906080439031DB329C9
:100360000130AE00C02906080839031DBA29023041
:10037000AE00C02906081039031DC0290330AE00A5
:100380002E08AF000330B000F701F8012F0803106A
:100390003018F707F70CF80CB018F707F70CF80C43
:1003A0003019F707F70CF80CB019F707F70CF80C31
:1003B000301AF707F70CF80CB01AF707F70CF80C1F
:1003C000301BF707F70CF80CB01BF707F70CF80C0D
:1003D000230878070420F800A2002114F429A30AB6
:1003E0002308033C0319A301A001FE3083168600F5
:1003F00083122D08F800080074217808A400A408CE
:10040000031D062A74217808A400FF29A4080319F3
:10041000432A2408303C0319A9012408313C031D58
:10042000132A0130A9002408323C031D192A023086
:10043000A9002408333C031D1F2A0330A900240807
:10044000343C031D252A0430A9002408353C031D33
:100450002B2A0530A9002408363C031D312A06301A
:10046000A9002408373C031D372A0730A9002408B7
:10047000383C031D3D2A0830A9002408393C031DDF
:10048000432A0930A900080003081F398300FF3000
:10049000AA00AC01AB01831603170908C039890013
:1004A00003131F129F120030031788008312870165
:1004B0008801890183130313A0012110A201A30164
:1004C0009F28DD28FF3083169500811300308700B8
:1004D0008312AA000130B100B200E02014300317EB
:1004E0008D0000308F0003131E210130B100023057
:1004F000B200E0201B3003178D0000308F00031383
:100500001E210430AD00FA30B2003820AD0B832A32
:10051000FC21233003178D0000308F0003131E21B0
:100520000130B100B200E0202408233C0319A12AC5
:1005300024082A3C0319A12A2A30B000F2202908F5
:10054000A800FC212408233C0319AF2A24082A3CD4
:100550000319AF2A2A30B000F2202908A700FC2195
:100560002408233C0319BD2A24082A3C0319BD2A68
:100570002A30B000F2202908A600FC212408233CE0
:100580000319CB2A24082A3C0319CB2A2A30B000AD
:10059000F2202908A500FC212408233C0319D22AB3
:1005A000FC21CC2A280BFC2A2708023C031DFC2A2C
:1005B0002608033C031DFC2A2508043C031DFC2AD5
:1005C000243003178D0000308F0003131E210130EB
:1005D000B100B200E020253003178D0000308F00FD
:1005E00003131E2187170830AD00FA30B2003820FF
:1005F000AD0BF52A8713182B2E3003178D00003012
:100600008F0003131E210130B1000230B200E02040
:100610002F3003178D0000308F0003131E210716A3
:100620001030AD00FA30B2003820AD0B122B07129B
:040630006A2A6300CF
:04400E00F12CFF3F53
:00000001FF
;PIC16F887
;CRC=5214  CREATED="12-Oct-21 22:06"
